:1009E500D3EF9400EE940040147D7A7C00ED1D70E9
:0D09F500011CED4C70F7EF1F70E61E80E353
:010A020022D1
:060A2E004D616E6F6A00CD
:10097000120A137F0C120A39751D807F01120A3981
:10098000AF1D120A39851D1CE4F51BE51B900A2ECC
:1009900093FF120A34051CE51CB49008751C807F77
:1009A00080120A39051BE51BC3940540DE051DE5D1
:1009B0001DB49003751D807F647E001209E580BB25
:100A0300C2A28F80D2A37F027E001209E5C2A32275
:050A3400D2A1020A033B
:050A3900C2A1020A0346
:1009C0008B188A19891AAB18AA19A91A120800607B
:1009D00013051AE51A7002051914F9120800FF121E
:0509E0000A3480E22250
:0808F8008F0B8E0A8D098C089C
:10090000E4F517FFFEFDFCAB0BAA0AA909A808C372
:100910001208E770057F30020A34AF0BAE0AAD094A
:10092000AC08EC4D4E4F6030E47B0AFAF9F812083F
:1009300055AF03AE170517740C2EF8A607AF0BAE14
:100940000AAD09AC08E47B0AFAF9F81208558F0BD6
:100950008E0A8D098C0880C2E517D394004010746C
:0F0960000B2517F8E62430FF120A34151780E92B
:01096F002265
:0F0A13007F38120A397F06120A397F0C020A391E
:03000000020A22CF
:0C0A2200787FE4F6D8FD75811D02097094
:10080000BB010689828A83E0225002E722BBFE02F6
:09081000E32289828A83E4932229
:1008190075F008758200EF2FFFEE33FECD33CDCC96
:1008290033CCC58233C5829BED9AEC99E582984019
:100839000CF582EE9BFEED9AFDEC99FC0FD5F0D6F6
:10084900E4CEFBE4CDFAE4CCF9A88222B800C1B920
:100859000059BA002DEC8BF084CFCECDFCE5F0CB5E
:10086900F97818EF2FFFEE33FEED33FDEC33FCEB97
:1008790033FB10D703994004EB99FB0FD8E5E4F952
:10088900FA227818EF2FFFEE33FEED33FDEC33FC3F
:10089900C933C910D7059BE99A4007EC9BFCE99A33
:1008A900F90FD8E0E4C9FAE4CCFB2275F010EF2F78
:1008B900FFEE33FEED33FDCC33CCC833C810D70778
:1008C9009BEC9AE899400AED9BFDEC9AFCE899F8B3
:0E08D9000FD5F0DAE4CDFBE4CCFAE4C8F92246
:1008E700EB9FF5F0EA9E42F0E99D42F0E89C45F067
:0108F70022DE
:00000001FF
