:100A0900D3EF9400EE940040147D7A7C00ED1D70C4
:0D0A1900011CED4C70F7EF1F70E61E80E32E
:010A260022AD
:070AED00D2A4D2A5C2A5228C
:090ADB00C2A4C2A5D2A4D2A52236
:100A2700E4FEC2A4EFA806088002C333D8FC30E76F
:0D0A370003D38001C392A5D2A40EBE08E532
:010A4400228F
:100A6200E4FFFEC2A4D2A430A50D7480A8060880BB
:0B0A720002C313D8FC42070EBE08E8C8
:010A7D002256
:0E0A7E0054FEFF120A27120A8CAF05120A2737
:0A0A8C00C2A4D2A5D2A420A5FD2229
:070AF400C2A4D2A5D2A42286
:0B0AD000C2A4C2A5D2A4C2A4D2A522D9
:090AE400C2A4D2A5D2A4C2A5222D
:100A4500AE07AC03120AEDEE120A7EAF04120A27B6
:0D0A5500120A8C120ADB7F0A7E00020A09D9
:0209E900AC0759
:1009EB00120AEDEC120A7E120AE4EC4401FF120A21
:0D09FB0027120A8C120A62120AF4120ADB9B
:010A080022CB
:100A9600C2A28F80D2A37F027E00120A09C2A322BD
:050AFB00D2A1020A96E1
:050B0000C2A1020A96EB
:1009C4008B198A1A891BAB19AA1AA91B1208006071
:1009D40013051BE51B7002051A14F9120800FF1217
:0509E4000AFB80E22285
:0808F8008F0B8E0A8D098C089C
:10090000E4F517FFFEFDFCAB0BAA0AA909A808C372
:100910001208E770057F30020AFBAF0BAE0AAD0983
:10092000AC08EC4D4E4F6030E47B0AFAF9F812083F
:1009300055AF03AE170517740C2EF8A607AF0BAE14
:100940000AAD09AC08E47B0AFAF9F81208558F0BD6
:100950008E0A8D098C0880C2E517D394004010746C
:0F0960000B2517F8E62430FF120AFB151780E964
:01096F002265
:0F0AA6007F38120B007F06120B007F0C020B0033
:0F0AB500454550524F4D20544553542E2E2E0080
:10097000120AA67F01120B007BFF7A0A79B51209D1
:10098000C47FE87E03120A09E4F518E5182441FB48
:10099000AD187FA0120A450518E518C3940540EB71
:1009A0007F01120B00E4F518AD187FA01209E912BF
:1009B0000AFB0518E518C3940540ED7F887E1312E5
:0409C0000A0980FEA2
:03000000020AC42D
:0C0AC400787FE4F6D8FD75811B020970F4
:10080000BB010689828A83E0225002E722BBFE02F6
:09081000E32289828A83E4932229
:1008190075F008758200EF2FFFEE33FECD33CDCC96
:1008290033CCC58233C5829BED9AEC99E582984019
:100839000CF582EE9BFEED9AFDEC99FC0FD5F0D6F6
:10084900E4CEFBE4CDFAE4CCF9A88222B800C1B920
:100859000059BA002DEC8BF084CFCECDFCE5F0CB5E
:10086900F97818EF2FFFEE33FEED33FDEC33FCEB97
:1008790033FB10D703994004EB99FB0FD8E5E4F952
:10088900FA227818EF2FFFEE33FEED33FDEC33FC3F
:10089900C933C910D7059BE99A4007EC9BFCE99A33
:1008A900F90FD8E0E4C9FAE4CCFB2275F010EF2F78
:1008B900FFEE33FEED33FDCC33CCC833C810D70778
:1008C9009BEC9AE899400AED9BFDEC9AFCE899F8B3
:0E08D9000FD5F0DAE4CDFBE4CCFAE4C8F92246
:1008E700EB9FF5F0EA9E42F0E99D42F0E89C45F067
:0108F70022DE
:00000001FF
