:100AA600D3EF9400EE940040147D7A7C00ED1D7027
:0D0AB600011CED4C70F7EF1F70E61E80E391
:010AC3002210
:070B7B00D2A4D2A5C2A522FD
:090B6900C2A4C2A5D2A4D2A522A7
:100AC400E4FEC2A4EFA806088002C333D8FC30E7D2
:0D0AD40003D38001C392A5D2A40EBE08E595
:010AE10022F2
:100AFF00E4FFFEC2A4D2A430A50D7480A80608801E
:0B0B0F0002C313D8FC42070EBE08E82A
:010B1A0022B8
:0E0B1B0054FEFF120AC4120B29AF05120AC4C1
:0A0B2900C2A4D2A5D2A420A5FD228B
:070B8200C2A4D2A5D2A422F7
:0B0B5E00C2A4C2A5D2A4C2A4D2A5224A
:090B7200C2A4D2A5D2A4C2A5229E
:100AE200AE07AC03120B7BEE120B1BAF04120AC44F
:0D0AF200120B29120B697F0A7E00020AA672
:020A8600AC07BB
:100A8800120B7BEC120B1B120B72EC4401FF120AC7
:0D0A9800C4120B29120AFF120B82120B6907
:010AA500222E
:100B3300C2A28F80D2A37F027E00120AA6C2A32282
:050B8900D2A1020B33B4
:050B8E00C2A1020B33BF
:100A61008B1B8A1C891DAB1BAA1CA91D12080060C7
:100A710013051DE51D7002051C14F9120800FF1273
:050A81000B8980E22258
:0809BD008F0B8E0A8D098C08D6
:1009C500E4F517FFFEFDFCAB0BAA0AA909A808C3AD
:1009D5001208E770057F30020B89AF0BAE0AAD092F
:1009E500AC08EC4D4E4F6030E47B0AFAF9F812087A
:1009F50055AF03AE170517740C2EF8A607AF0BAE4F
:100A05000AAD09AC08E47B0AFAF9F81208558F0B10
:100A15008E0A8D098C0880C2E517D39400401074A6
:0F0A25000B2517F8E62430FF120B89151780E90F
:010A3400229F
:0F0B43007F38120B8E7F06120B8E7F0C020B8EEB
:100A350049324320525443205445535400436F6E6A
:100A45006669672054696D652E2E2E0052656164B6
:0C0A5500696E672054696D652E2E2E001E
:1008F800751823751959751A50120B437BFF7A0A1C
:100908007935120A617FE87E03120AA67F01120B6D
:100918008E7BFF7A0A7942120A61AB187D027FD07A
:10092800120AE2AB197D017FD0120AE2AB1AE4FD8C
:100938007FD0120AE27FE87E03120AA67F01120B1B
:100948008E7BFF7A0A7951120A617FC0120B8E7D65
:10095800027FD0120A868F18E518C4540F2430FF7E
:10096800120B89E518540F2430FF120B897F3A12B5
:100978000B897D017FD0120A868F19E519C4540F9F
:100988002430FF120B89E519540F2430FF120B890C
:100998007F3A120B89E4FD7FD0120A868F1AE51A76
:1009A800C4540F2430FF120B89E51A540F2430FF6A
:0509B800120B8980957F
:03000000020B529E
:0C0B5200787FE4F6D8FD75811D0208F8DC
:10080000BB010689828A83E0225002E722BBFE02F6
:09081000E32289828A83E4932229
:1008190075F008758200EF2FFFEE33FECD33CDCC96
:1008290033CCC58233C5829BED9AEC99E582984019
:100839000CF582EE9BFEED9AFDEC99FC0FD5F0D6F6
:10084900E4CEFBE4CDFAE4CCF9A88222B800C1B920
:100859000059BA002DEC8BF084CFCECDFCE5F0CB5E
:10086900F97818EF2FFFEE33FEED33FDEC33FCEB97
:1008790033FB10D703994004EB99FB0FD8E5E4F952
:10088900FA227818EF2FFFEE33FEED33FDEC33FC3F
:10089900C933C910D7059BE99A4007EC9BFCE99A33
:1008A900F90FD8E0E4C9FAE4CCFB2275F010EF2F78
:1008B900FFEE33FEED33FDCC33CCC833C810D70778
:1008C9009BEC9AE899400AED9BFDEC9AFCE899F8B3
:0E08D9000FD5F0DAE4CDFBE4CCFAE4C8F92246
:1008E700EB9FF5F0EA9E42F0E99D42F0E89C45F067
:0108F70022DE
:00000001FF
